:020000020000FC
:100000000C9433000C9432000C9432000C94C40015
:10005C000C947E000C943200189501E20EBF0FEF49
:10006C000DBF1FEF10BB11B9112711BB12B918E34B
:10007C008DD09CD0B5D018E389D098D0A8D018E3F7
:10008C0085D094D018E382D091D018E07FD08ED058
:10009C0011E07CD08BD016E079D088D01EE076D0E1
:1000AC0085D013E57AD082D010E577D07FD015E4D7
:1000BC0074D07CD015E471D079D014E46ED076D0A5
:1000CC001AE36BD073D000E2009369000DB30460A7
:1000DC000DBB00C0C0E0D2E000270993088300E00C
:1000EC0004BD02E005BD01E000936E007894FFCFE3
:1000FC000FB70F93DF93CF939F938F938091000251
:10010C0090910102019682340FE0900761F5C0E0F6
:10011C00D2E0002709930883322F369511E036D0B0
:10012C0045D016E033D042D01EE030D03FD013E59E
:10013C0034D03CD010E531D039D015E42ED036D0A7
:10014C0015E42BD033D014E428D030D01AE325D0CA
:10015C002DD010E222D02AD066277727032F46D045
:10016C003327222704C080930002909301028F91C1
:10017C009F91CF91DF910F910FBF18950F930FB7F0
:10018C000F9323950F910FBF0F91189511BB1FD093
:10019C00169A1DD016981BD0089511BB179A17D01C
:1001AC00169A15D0169813D0179808951F931127E7
:1001BC0010BB11BB159A0BD0169A09D01FB116980B
:1001CC0017FDF9CF15981FEF10BB1F9108958F9352
:1001DC009F939FE08CE90197F1F79F918F91089580
:1001EC00F6DFF5DFF4DFF3DFF2DF08956F9304360B
:1001FC00B0F46030D1F466274AE0041798F47130FB
:10020C00B9F06030A9F46627602F6F937395733043
:10021C0091F0723001F1713049F16F91089563954D
:10022C000456E5CF63950A50E7CF6F937395E3CFF0
:10023C006F937395E8CF1F914F910F91502F505D95
:10024C00ACDFB4DF542F505DA8DFB0DF512F505D11
:10025C00A4DFACDFE2CF1F914F91542F505D9DDF97
:10026C00A5DF512F505D99DFA1DFD7CF0F91502F14
:08027C00505D93DF9BDFD1CF41
:00000001FF
