:020000020000FC
:100000000C9435000C94CB000C94E3000C94AB03DF
:040010000C94340018
:10005C000C9406010C9417040C94340018950FEFB3
:10006C000DBF01E20EBF00EF00930A0100270093C1
:10007C001802009319020FEF07B900E303BB789441
:10008C0002E0009369000DB301600DBB789408E0A9
:10009C00009369000DB302600DBB7894C4E0D2E00C
:1000AC0000270993088344275527C0E0D2E0002796
:1000BC0009930883C2E0D2E000270993088300E08B
:1000CC0004BD02E005BD01E000936E0078940FEFD3
:1000DC0000BB01B9002701BB02B908E3CCD1DBD1CD
:1000EC00F4D108E3C8D1D7D1E7D108E3C4D1D3D137
:1000FC0008E3C1D1D0D108E0BED1CDD101E0BBD154
:10010C00CAD106E0B8D1C7D10EE0B5D1C4D1C6E092
:10011C00D2E0002709930883C8E0D2E000270993B6
:10012C000883CAE0D2E0002709930883CCE0D2E030
:10013C00002709930883CEE0D2E0002709930883B7
:10014C00C0E1D2E0002709930883C2E1D2E0002786
:10015C0009930883C4E1D2E0002709930883C6E120
:10016C00D2E000270993088300E20093690004E0C1
:10017C000DBB99240FEF0DB900E00093800002E055
:10018C00009381000C949302FFCF0F931F930FB732
:10019C000F9308E577D17FD1413049F141E06530CB
:1001AC0009F025C00E9477020AE0D01601F10D2D4E
:1001BC000395D02E0E9483021AC00F931F930FB782
:1001CC000F930FE45FD167D10FEF08B9513079F07D
:1001DC0051E0653009F00BC00E94770200E0D016A8
:1001EC0031F00D2D0A95D02E0E94830200C00F9184
:1001FC000FBF1F910F91653009F018950E946F0485
:10020C000F931F930FB70F939F938F93413019F058
:10021C00513009F017C080910402909105020196AB
:10022C008C3003E0900751F444275527C4E0D2E00A
:10023C000027099308838827992704C08093040218
:10024C00909305028091000290910102019660301A
:10025C0029F06130B1F06230C1F15BC0713029F02E
:10026C008C380BE5900741F4DFC170E0C0E0D2E0C0
:10027C000027099308834DC08093000290930102DC
:10028C0048C001E0C016F9F401E0801671F0843822
:10029C000EE1900799F4A394C0E0D2E000270993F3
:1002AC00088305E0A016A9F511C3C0E0D2E0002731
:1002BC0009930883AA2400E0802E2BC080930002AF
:1002CC009093010226C00C948F01713051F0863C42
:1002DC000DE2900769F48C389BE5900791F40C942F
:1002EC001A0370E0C0E0D2E000270993088311C024
:1002FC000FEF08B900E304BB809300029093010256
:10030C0008C0002708B904BB809300029093010237
:10031C0000C08F919F910F910FBF1F910F91189556
:10032C003FEE99270C949F0100E000931802C02E19
:10033C00F7CF9430C9F330930B010FEF0A95F1F717
:10034C00CAD000911802013021F401E00093190287
:10035C0004C000E0BAD000931902009109010F709B
:10036C00003F11F021E08827843039F0102F122340
:10037C0041F08395220F0C94BA01330F93950C9492
:10038C009F0101E00093180200911902013041F223
:10039C00603039F09330F1F0833009F004C00C94E4
:1003AC001C020C941A03082F000F080F090F039559
:1003BC00613021F0653051F00C949601B02E0E9402
:1003CC00770210E0D11621F00C947603B02E81C286
:1003DC000E944403653011F00C949601803061F05A
:1003EC008130B1F0833001F10E94770200E0D02E11
:1003FC000E9483020C946F040E94770203E0E016C3
:10040C0099F00E2D0395E02E0E9483020C946F043C
:10041C000E94770200E0E01639F00E2D0A95E02ECE
:10042C000E9483020C946F040E946F04913009F1B6
:10043C00613031F0623089F0653099F00C9496019E
:10044C00903011F00C94960100E0C01681F401E09C
:10045C00802E01E0C02E0C949601923041F40C9445
:10046C00B503923021F4002708B904BBDDC00C940D
:10047C0096010C94960101BB1FD0169A1DD01698AC
:10048C001BD0089501BB179A17D0169A15D0169841
:10049C0013D0179808950F93002700BB01BB159A32
:1004AC000BD0169A09D00FB1169807FDF9CF1598F5
:1004BC000FEF00BB0F9108958F939F939FE08CE9F2
:1004CC000197F1F79F918F910895F6DFF5DFF4DF37
:1004DC00F3DFF2DF0895F9DFF8DFF7DFF6DFF5DFA2
:1004EC0008950F93D2E0C6E00B2D003021F0D99087
:1004FC00E9900A95FACF0F9108950F931F93D2E0CC
:10050C00C6E00B2D013021F0199119910A95FACF03
:10051C00D992E9921F910F91089560E071E002E386
:10052C00B1DFB9DF01E3AEDFB6DF02E3ABDFB3DF90
:10053C0001E3A8DFB0DF00E2A5DFADDF01E3A2DF5E
:10054C00AADF07E39FDFA7DF03E79CDFA4DF01E35C
:10055C0099DFA1DF00E296DF9EDF00E293DF9BDFF5
:10056C0000E290DF98DF00E28DDF95DF0DE48ADF9B
:10057C0092DF02E387DF8FDF08EA7DDF8CDF06E5A1
:10058C0081DF89DF05E67EDF86DF0EE67BDF83DF3A
:10059C0004E678DF80DF09E675DF7DDF0EE672DFCB
:1005AC007ADF07E66FDF77DF00E26CDF74DF0DE4E4
:1005BC0069DF71DF01E666DF6EDF03E663DF6BDFA9
:1005CC0008E660DF68DF09E65DDF65DF0EE65ADF0F
:1005DC0062DF05E657DF5FDF02D00C94960101E085
:1005EC000A3039F0B02E0E947702D02E86DF0395A8
:1005FC00F7CF01E00B3051F0B02E0E94770211E0E2
:10060C00E12E0E94830203950395F4CF02E00A3099
:10061C0051F0B02E0E94770212E0E12E0E9483026C
:10062C0003950395F4CF089561E001E024DF33DFF7
:10063C0000E821DF30DF03E525DF2DDF05E622DFD3
:10064C002ADF0CE61FDF27DF05E61CDF24DF03E6CD
:10065C0019DF21DF04E716DF1EDF00E213DF1BDFEB
:10066C0009E610DF18DF04E70DDF15DF05E60ADF0A
:10067C0012DF0DE607DF0FDF0C94960162E071E0EC
:10068C0001E0F9DE08DF00E8F6DE05DF0FE4FADE54
:10069C0002DF05E7F7DEFFDE04E7F4DEFCDE00E256
:1006AC00F1DEF9DE0FE6EEDEF6DE06E6EBDEF3DE7D
:1006BC0000E2E8DEF0DE03E7E5DEEDDE04E7E2DE95
:1006CC00EADE0FE6DFDEE7DE03E6DCDEE4DE0BE689
:1006DC00D9DEE1DE08EACFDEDEDE0B2D62D1FFDFF4
:1006EC0063E00E9477029E2C01E0C5DED4DE00E8B8
:1006FC00C2DED1DE09E4C6DECEDE0EE6C3DECBDE24
:10070C0003E7C0DEC8DE05E6BDDEC5DE02E7BADE05
:10071C00C2DE04E7B7DEBFDE00E2B4DEBCDE03E619
:10072C00B1DEB9DE0FE6AEDEB6DE09E6ABDEB3DE79
:10073C000EE6A8DEB0DE03E7A5DEADDE08EA9BDE42
:10074C00AADE092D2ED10C9496010F939A9400E0F9
:10075C00901611F00F91C8CF0F910C94C0030F930A
:10076C009F92939441D09E1409F0FBCF9F900F91D0
:10077C000C941A0364E071E001E07DDE8CDE00E88D
:10078C007ADE89DE04E47EDE86DE05E67BDE83DE51
:10079C000CE678DE80DE09E675DE7DDE06E772DECD
:1007AC007ADE05E66FDE77DE02E76CDE74DE09E6E4
:1007BC0069DE71DE0EE666DE6EDE07E663DE6BDE9C
:1007CC0000E260DE68DE09E45DDE65DE04E75ADE29
:1007DC0062DE05E657DE5FDE0DE654DE5CDE04C04D
:1007EC000027009300021DC00F9301E000936E00E0
:1007FC000FEF0093990000E00093980071E0C2E0C5
:10080C00D2E00027099308830F9108950F9300E01D
:10081C0000936E00002700939900009398000F91AD
:10082C0008950F930FB70F939F938F9380910202AC
:10083C00909103020196643011F0633021F1713014
:10084C0051F0863C0DE2900769F48C389BE59007DB
:10085C0091F4DCDF35C070E0C2E0D2E000270993F0
:10086C0008832EC00FEF08B900E304BB809302028B
:10087C009093030225C0002708B904BB80930202A1
:10088C00909303021DC0713051F0813A07E090073C
:10089C0069F4BCDF8E339FE0900769F411C070E0FF
:1008AC00C2E0D2E00027099308830AC080930202B9
:1008BC009093030205C0809302029093030200C040
:1008CC008F919F910F910FBF0F91189565E001E0EB
:1008DC00B02E01E0D0DDDFDD00E8CDDDDCDD01E4B4
:1008EC00D1DDD9DD04E6CEDDD6DD0DE6CBDDD3DD05
:1008FC0009E6C8DDD0DD0EE6C5DDCDDD00E2C2DDEA
:10090C00CADD0DE6BFDDC7DD0FE6BCDDC4DD04E6E8
:10091C00B9DDC1DD05E6B6DDBEDD00E2B3DDBBDD74
:10092C000B2D3FD008EAA7DDB6DD0E9477020D2D16
:10093C000E94D70420D000E2A5DDADDD00E2A2DDEF
:10094C00AADD00E29FDDA7DD00E29CDDA4DD00E274
:10095C0099DDA1DD00E296DD9EDD00E293DD9BDDFD
:10096C0000E290DD98DD04E28DDD95DD0E2D0E9418
:10097C00D7040C94960111270D2D093050F029F055
:10098C0008E010E314BB112704C008E010E114BB0D
:10099C001127003021F0110F11600A95FACF18B908
:1009AC0008950A3021F401E36DDD75DD0A50005D18
:0809BC00002F68DD70DD0895D5
:00000001FF
