:020000020000FC
:100000000C9433000C94AB000C94BF000C943200A1
:10005C000C94DC000C94320018950FEF0DBF01E2EC
:10006C000EBF00EF00930A010027009316020093C5
:10007C0017020FEF07B900E303BB02E0009369001E
:10008C000DB301600DBB08E0009369000DB3026075
:10009C000DBBC0E0D2E000270993088300E004BD4B
:1000AC0002E005BD01E000936E0078940FEF00BBF9
:1000BC0001B9002701BB02B908E393D1A2D1BBD18E
:1000CC0008E38FD19ED1AED108E38BD19AD108E34E
:1000DC0088D197D108E085D194D101E082D191D11A
:1000EC0006E07FD18ED10EE07CD18BD1C4E0D2E082
:1000FC00002709930883C6E0D2E000270993088300
:10010C00C8E0D2E0002709930883CAE0D2E00027B8
:10011C0009930883CCE0D2E0002709930883CEE052
:10012C00D2E0002709930883C0E1D2E000270993AD
:10013C000883C2E1D2E0002709930883C4E1D2E02E
:10014C000027099308830C9462010F931F930FB738
:10015C000F93413011F141E0653009F01EC00E944F
:10016C002D020AE0D016C9F00395D02E0E9437025A
:10017C0014C00F931F930FB70F93513071F051E0D0
:10018C00653009F00AC00E942D0200E0D01629F05B
:10019C000A95D02E0E94370200C00F910FBF1F91FD
:1001AC000F91653009F018950E945B030FB70F9300
:1001BC00DF93CF939F938F93413019F0513009F017
:1001CC0017C0809102029091030201968C3003E0DB
:1001DC00900751F444275527C2E0D2E00027099339
:1001EC0008838827992704C0809302029093030206
:1001FC0080910002909101020196603029F06130EB
:10020C00B1F0623071F151C0713029F08C380BE5CE
:10021C00900741F4B8C170E0C0E0D2E00027099328
:10022C00088343C080930002909301023EC001E01A
:10023C00C01661F084380EE1900771F4A39405E0C8
:10024C00A01699F501E0C01681F52CC2C0E0D2E0F1
:10025C0000270993088329C0809300029093010220
:10026C0024C0713051F0863C0DE2900769F48C3853
:10027C009BE5900791F40C94C90270E0C0E0D2E0C9
:10028C0000270993088311C00FEF08B900E304BBE2
:10029C00809300029093010208C0002708B904BBA8
:1002AC00809300029093010200C08F919F91CF9197
:1002BC00DF910F910FBF18950E9443023FEE9927D3
:1002CC0005C000E000931602C02EF8CF9430C9F39D
:1002DC0030930B010FEF0A95F1F7B3D00091160292
:1002EC00013021F401E00093170204C000E0A3D018
:1002FC0000931702009109010F70003F11F021E0EB
:10030C008827843031F0102F122331F08395220F7F
:10031C00F8CF330F9395DACF01E0009316020091DA
:10032C001702013059F2603039F09330F1F083301C
:10033C0009F004C00C94E3010C94C902082F000FBF
:10034C00080F090F0395613021F0653051F00C94C2
:10035C006401B02E0E942D0210E0D11621F00C94F5
:10036C002603B02EA2C10E94F402653011F00C9449
:10037C006401803051F0813099F00E942D0200E030
:10038C00D02E0E9437020C945B030E942D0203E0D6
:10039C00E01689F00395E02E0E9437020C945B0363
:1003AC000E942D0200E0E01631F00A95E02E0E942A
:1003BC0037020C945B030E945B03913081F0613037
:1003CC0021F0653039F00C946401903031F401E087
:1003DC00C02E74CF923009F4D6C00C9464010C94E6
:1003EC00640101BB1FD0169A1DD016981BD008951E
:1003FC0001BB179A17D0169A15D0169813D01798C8
:10040C0008950F93002700BB01BB159A0BD0169AC9
:10041C0009D00FB1169807FDF9CF15980FEF00BB57
:10042C000F9108958F939F939FE08CE90197F1F7BB
:10043C009F918F910895F6DFF5DFF4DFF3DFF2DFA4
:10044C000895F9DFF8DFF7DFF6DFF5DF0895D2E086
:10045C00C4E00B2D003021F0D990E9900A95FACF29
:10046C000895D2E0C4E00B2D013021F019911991BF
:10047C000A95FACFD992E992089560E071E002E30F
:10048C00B7DFBFDF01E3B4DFBCDF02E3B1DFB9DF0D
:10049C0001E3AEDFB6DF00E2ABDFB3DF01E3A8DFE1
:1004AC00B0DF07E3A5DFADDF03E7A2DFAADF01E3DF
:1004BC009FDFA7DF00E29CDFA4DF00E299DFA1DF72
:1004CC0000E296DF9EDF00E293DF9BDF0DE490DF1E
:1004DC0098DF02E38DDF95DF08EA83DF92DF06E524
:1004EC0087DF8FDF05E684DF8CDF0EE681DF89DFB7
:1004FC0004E67EDF86DF09E67BDF83DF0EE678DF4E
:10050C0080DF07E675DF7DDF00E272DF7ADF0DE466
:10051C006FDF77DF01E66CDF74DF03E669DF71DF25
:10052C0008E666DF6EDF09E663DF6BDF0EE660DF91
:10053C0068DF05E65DDF65DF01D0089501E00A3074
:10054C0039F0B02E0E942D02D02E8BDF0395F7CF01
:10055C0001E00B3051F0B02E0E942D0211E0E12E83
:10056C000E94370203950395F4CF02E00A3051F054
:10057C00B02E0E942D0212E0E12E0E94370203954C
:10058C000395F4CF089561E071E001E02ADF39DFD3
:10059C0000E827DF36DF03E52BDF33DF05E628DF56
:1005AC0030DF0CE625DF2DDF05E622DF2ADF03E650
:1005BC001FDF27DF04E71CDF24DF00E219DF21DF68
:1005CC0009E616DF1EDF04E713DF1BDF05E610DF8D
:1005DC0018DF0DE60DDF15DF0C94640162E071E0AD
:1005EC0001E0FFDE0EDF00E8FCDE0BDF0FE400DFD6
:1005FC0008DF05E7FDDE05DF04E7FADE02DF00E2D7
:10060C00F7DEFFDE0FE6F4DEFCDE06E6F1DEF9DEF9
:10061C0000E2EEDEF6DE03E7EBDEF3DE04E7E8DE17
:10062C00F0DE0FE6E5DEEDDE03E6E2DEEADE0BE60B
:10063C00DFDEE7DE08EAD5DEE4DE0B2D9DD0FFDF42
:10064C0063E001E0CEDEDDDE00E8CBDEDADE09E4DD
:10065C00CFDED7DE0EE6CCDED4DE03E7C9DED1DE9C
:10066C0005E6C6DECEDE02E7C3DECBDE04E7C0DE87
:10067C00C8DE00E2BDDEC5DE03E6BADEC2DE0FE692
:10068C00B7DEBFDE09E6B4DEBCDE0EE6B1DEB9DEF7
:10069C0003E7AEDEB6DE08EAA4DEB3DE0E942D026E
:1006AC000E2D64E065E001E0B02E01E09ADEA9DEDB
:1006BC0000E897DEA6DE01E49BDEA3DE04E698DE0E
:1006CC00A0DE0DE695DE9DDE09E692DE9ADE0EE6F4
:1006DC008FDE97DE00E28CDE94DE0DE689DE91DEA5
:1006EC000FE686DE8EDE04E683DE8BDE05E680DE3C
:1006FC0088DE00E27DDE85DE0B2D3ED008EA71DE61
:10070C0080DE0E942D020D2D0E94C20320D000E23B
:10071C006FDE77DE00E26CDE74DE00E269DE71DE35
:10072C0000E266DE6EDE00E263DE6BDE00E260DEBF
:10073C0068DE00E25DDE65DE00E25ADE62DE04E2C7
:10074C0057DE5FDE0E2D0E94C2030C94640111274C
:10075C00093050F029F008E010E314BB112704C055
:10076C0008E010E114BB1127003021F0110F1160CB
:10077C000A95FACF18B908950A3021F401E338DE4E
:0E078C0040DE0A50005D002F33DE3BDE089594
:00000001FF
