:020000020000FC
:100000000C943F000C94F7000C940C010C943E00EF
:0C0010000C943E000C943E000C943E004A
:04005C000C942A01D5
:040050000C94980470
:100074000C94FE030C943E0018950FEF0DBF01E2A3
:100084000EBF00EF00930A010027009318020093AB
:1000940019020FEF07B90FEF03BB0F93C4E0D2E0CF
:1000A4000027099308830F914427552701E0B02EB8
:1000B400789402E0009369000DB301600DBB78945D
:1000C40008E0009369000DB302600DBB78940F93B0
:1000D400C0E0D2E00027099308830F910F93C2E098
:1000E400D2E00027099308830F9100E004BD02E0E9
:1000F40005BD01E000936E0078940FEF00BB01B9D9
:10010400002701BB02B908E305D214D22DD208E3BB
:1001140001D210D220D208E3FDD10CD208E3FAD1E7
:1001240009D208E0F7D106D201E0F4D103D206E007
:10013400F1D100D20EE0EED1FDD10F93C6E0D2E0B2
:100144000027099308830F910F93C8E0D2E000279A
:10015400099308830F910F93CAE0D2E00027099313
:1001640008830F910F93CCE0D2E000270993088312
:100174000F910F93CEE0D2E00027099308830F91EB
:100184000F93C0E1D2E00027099308830F910F93E6
:10019400C2E1D2E00027099308830F910F93C4E1D1
:1001A400D2E00027099308830F910F93C6E1D2E0B0
:1001B4000027099308830F91789400EC00937C0046
:1001C40008E000937B000DEC00937A0099247724D7
:1001D40078940FEF0DB900E00093800002E00093E3
:1001E400810001E004B9E8C1FFCF0F931F930FB75B
:1001F4000F93413021F141E0653009F020C00E94A5
:10020400C2020AE0D016D9F00D2D0395D02E0E941B
:10021400CE0215C00F931F930FB70F93513079F08F
:1002240051E0653009F00BC00E94C20200E0D01614
:1002340031F00D2D0A95D02E0E94CE0200C00F91F0
:100244000FBF1F910F91653009F018950E94F404B7
:100254000F931F930FB70F939F938F93DF93CF93B6
:10026400413019F0513009F019C080910402909185
:10027400050201968C3003E0900761F4442755276A
:100284000F93C4E0D2E00027099308830F918827D5
:10029400992704C080930402909305028091000280
:1002A400909101020196603039F0613011F16230B1
:1002B40009F07CC00C94AB01713069F08C380BE50B
:1002C400900791F4CF91DF918F919F910F910FBF80
:1002D4001F910F9100C270E00F93C0E0D2E000279D
:1002E400099308830F9162C08093000290930102E6
:1002F4005DC001E0C01659F501E08016C1F08438F4
:100304000EE19007F9F4A3940F93C0E0D2E0002724
:10031400099308830F9105E0A016C9F4CF91DF91EA
:100324008F919F910F910FBF1F910F9158C30F93FE
:10033400C0E0D2E00027099308830F91AA2400E0CB
:10034400802E34C080930002909301022FC00C943D
:10035400D8017130A9F0863C0DE29007E9F400273A
:1003640008B904BB8C389BE59007D9F4CF91DF9191
:100374008F919F910F910FBF1F910F910C946D035B
:1003840070E00F93C0E0D2E00027099308830F9137
:100394000FEF08B904BB0AC08093000290930102D6
:1003A40005C0809300029093010200C0CF91DF91B9
:1003B4008F919F910F910FBF1F910F9118953FEE51
:1003C40099270C94EA0100E000931802C02EF7CF9D
:1003D4009430C9F330930B010FEF0A95F1F7CAD0AB
:1003E40000911802013021F401E00093190204C0C5
:1003F40000E0BAD000931902009109010F70003F88
:1004040011F021E08827843039F0102F122341F0B5
:100414008395220F0C940502330F93950C94EA01F3
:1004240001E00093180200911902013041F260309A
:1004340039F09330F1F0833009F004C00C94670272
:100444000C946D03082F000F080F090F03956130FA
:1004540021F0653051F00C94E101B02E0E94C202EB
:1004640010E0D11621F00C94C903B02EBBC20E9437
:100474009703653011F00C94E101803061F0813014
:10048400B1F0833001F10E94C20200E0D02E0E943C
:10049400CE020C94F4040E94C20203E0E01699F028
:1004A4000E2D0395E02E0E94CE020C94F4040E94BB
:1004B400C20200E0E01639F00E2D0A95E02E0E94EB
:1004C400CE020C94F4040E94F404913009F16130DA
:1004D40031F0633089F0653099F00C94E10190308B
:1004E40011F00C94E10100E0C01681F401E0802ECB
:1004F40001E0C02E0C94E101923041F40C943504D7
:10050400923021F4002708B904BBE5C00C94E10142
:100514000C94E10101BB1FD0169A1DD016981BD074
:10052400089501BB179A17D0169A15D0169813D0B0
:10053400179808950F93002700BB01BB159A0BD0A1
:10054400169A09D00FB1169807FDF9CF15980FEF39
:1005540000BB0F9108958F939F939FE08CE90197BF
:10056400F1F79F918F910895F6DFF5DFF4DFF3DF64
:10057400F2DF0895F9DFF8DFF7DFF6DFF5DF08953E
:100584000F93D2E0C6E00B2D003021F0D990E99012
:100594000A95FACF0F9108950F931F93D2E0C6E006
:1005A4000B2D013021F0199119910A95FACFD992A6
:1005B400E9921F910F91089560E071E002E3B1DFC9
:1005C400B9DF01E3AEDFB6DF02E3ABDFB3DF01E3A4
:1005D400A8DFB0DF00E2A5DFADDF01E3A2DFAADF21
:1005E40007E39FDFA7DF03E79CDFA4DF01E399DFD5
:1005F400A1DF00E296DF9EDF00E293DF9BDF00E2F3
:1006040090DF98DF00E28DDF95DF0DE48ADF92DF73
:1006140002E387DF8FDF08EA7DDF8CDF06E581DF19
:1006240089DF05E67EDF86DF0EE67BDF83DF04E617
:1006340078DF80DF09E675DF7DDF0EE672DF7ADFC3
:1006440007E66FDF77DF00E26CDF74DF0DE469DF5C
:1006540071DF01E666DF6EDF03E663DF6BDF08E66A
:1006640060DF68DF09E65DDF65DF0EE65ADF62DF23
:1006740005E657DF5FDF02D00C94E10101E00A30A8
:1006840039F0B02E0E94C202D02E86DF0395F7CF38
:1006940001E00B3051F0B02E0E94C20211E0E12EB5
:1006A4000E94CE0203950395F4CF02E00A3051F084
:1006B400B02E0E94C20212E0E12E0E94CE020395E7
:1006C4000395F4CF09E0B02E0E94C20200E0D02EC0
:1006D4000E94CE02089561E001E01CDF2BDF00E8F8
:1006E40019DF28DF03E51DDF25DF05E61ADF22DF3A
:1006F4000CE617DF1FDF05E614DF1CDF03E611DF5E
:1007040019DF04E70EDF16DF00E20BDF13DF09E673
:1007140008DF10DF04E705DF0DDF05E602DF0ADF8F
:100724000DE6FFDE07DF0C94E10162E071E001E019
:10073400F1DE00DF00E8EEDEFDDE0FE4F2DEFADEDD
:1007440005E7EFDEF7DE04E7ECDEF4DE00E2E9DEE7
:10075400F1DE0FE6E6DEEEDE06E6E3DEEBDE00E2E9
:10076400E0DEE8DE03E7DDDEE5DE04E7DADEE2DE36
:100774000FE6D7DEDFDE03E6D4DEDCDE0BE6D1DE19
:10078400D9DE08EAC7DED6DE0B2D95D1FFDF63E0A4
:100794000E94C2029E2C01E0BDDECCDE00E8BADE7F
:1007A400C9DE09E4BEDEC6DE0EE6BBDEC3DE03E759
:1007B400B8DEC0DE05E6B5DEBDDE02E7B2DEBADED7
:1007C40004E7AFDEB7DE00E2ACDEB4DE03E6A9DEAA
:1007D400B1DE0FE6A6DEAEDE09E6A3DEABDE0EE694
:1007E400A0DEA8DE03E79DDEA5DE08EA93DEA2DE36
:1007F400092D61D10C94E1010F930FB70F934F9220
:100804005F927F92409078005090790001E07016DA
:1008140039F000E0401600E0500669F4739408C013
:100824000FEF401603E0500631F4739404C078B817
:1008340003E0701639F07F905F904F900F910FBFD7
:100844000F9118950F937F929F9277249A9400E0CA
:10085400901621F09F907F900F919DCF9F907F9055
:100864000F910C9440040F939F92939440D09E1444
:1008740009F0FBCF9F900F910C946D0364E001E0AD
:1008840049DE58DE00E846DE55DE04E44ADE52DE88
:1008940005E647DE4FDE0CE644DE4CDE09E641DECB
:1008A40049DE06E73EDE46DE05E63BDE43DE02E7E2
:1008B40038DE40DE09E635DE3DDE0EE632DE3ADEC7
:1008C40007E62FDE37DE00E22CDE34DE09E429DE23
:1008D40031DE04E726DE2EDE05E623DE2BDE0DE622
:1008E40020DE28DE04C00027009300021FC00F93FF
:1008F40001E000936E000FEF0093990000E0009375
:10090400980071E00F93C2E0D2E0002709930883B6
:100914000F910F9108950F9300E000936E0000274C
:1009240000939900009398000F9108950F930FB7C7
:100934000F939F938F9380910202909103020196EB
:10094400643011F0633031F1713051F0863C0DE2C6
:10095400900779F48C389BE59007A1F4DCDF39C06B
:1009640070E00F93C2E0D2E00027099308830F914F
:1009740030C00FEF08B900E304BB809302029093E8
:10098400030227C0002708B904BB80930202909396
:1009940003021FC0713051F0813A07E0900779F4E7
:1009A400BADF8E339FE0900779F413C070E00F93A1
:1009B400C2E0D2E00027099308830F910AC0809314
:1009C40002029093030205C08093020290930302F3
:1009D40000C08F919F910F910FBF0F91189565E003
:1009E40001E0B02E01E096DDA5DD00E893DDA2DD97
:1009F40001E497DD9FDD04E694DD9CDD0DE691DDE9
:100A040099DD09E68EDD96DD0EE68BDD93DD00E2F1
:100A140088DD90DD0DE685DD8DDD0FE682DD8ADD86
:100A240004E67FDD87DD05E67CDD84DD00E279DD3B
:100A340081DD0B2D40D008EA6DDD7CDD0E94C20211
:100A44000D2D0E945D0520D000E26BDD73DD00E218
:100A540068DD70DD00E265DD6DDD00E262DD6ADD2A
:100A640000E25FDD67DD00E25CDD64DD00E259DDAC
:100A740061DD00E256DD5EDD04E253DD5BDD0E2D5B
:100A84000E945D050C94E10111270D2D093058F0E9
:100A9400093029F008E01FEF14BB112704C008E057
:100AA40010E114BB1127003021F0110F11600A95D9
:100AB400FACF18B908950F930A3021F401E331DD18
:100AC40039DD0A50005D002F2CDD34DD0F910895CF
:00000001FF
