:020000020000FC
:100000000C9433000C94A5000C94B9000C943200AD
:10005C000C94D6000C94320018950FEF0DBF01E2F2
:10006C000EBF00EF00930A010FEF07B900E303BBCB
:10007C0002E0009369000DB301600DBB08E0009332
:10008C0069000DB302600DBBC0E0D2E000270993FC
:10009C00088300E004BD02E005BD01E000936E00A2
:1000AC0078940FEF00BB01B9002701BB02B908E33C
:1000BC0077D186D19FD108E373D182D192D108E355
:1000CC006FD17ED108E36CD17BD108E069D178D1B6
:1000DC0001E066D175D106E063D172D10EE060D13A
:1000EC006FD1C4E0D2E0002709930883C6E0D2E0C8
:1000FC00002709930883C8E0D2E0002709930883FE
:10010C00CAE0D2E0002709930883CCE0D2E00027B4
:10011C0009930883CEE0D2E0002709930883C0E15D
:10012C00D2E0002709930883C2E1D2E000270993AB
:10013C000883C4E1D2E0002709930883B5C00F936C
:10014C001F930FB70F93413011F141E0653009F067
:10015C001EC00E940C020AE0D016C9F00395D02EE6
:10016C000E94160214C00F931F930FB70F935130B8
:10017C0071F051E0653009F00AC00E940C0200E0F9
:10018C00D01629F00A95D02E0E94160200C00F91AD
:10019C000FBF1F910F91653009F018950E943B031A
:1001AC000FB70F93DF93CF939F938F93413019F039
:1001BC00513009F017C08091020290910302019610
:1001CC008C3003E0900751F444275527C2E0D2E06D
:1001DC000027099308838827992704C0809302027B
:1001EC00909303028091000290910102019660307D
:1001FC0021F06130A9F0623069F1713029F08C384E
:10020C000BE5900741F49EC170E0C0E0D2E00027FE
:10021C000993088342C080930002909301023DC071
:10022C0001E0C01661F084380EE1900771F4A394DC
:10023C0005E0A01691F501E0C01679F513C2C0E0F7
:10024C00D2E000270993088328C080930002909382
:10025C00010223C0713061F0863C0DE2900779F405
:10026C008C389BE5900781F4002708B904BB6AC160
:10027C0070E0C0E0D2E00027099308830EC08093A1
:10028C0000029093010209C00FEF08B900E304BB10
:10029C00809300029093010200C08F919F91CF91A7
:1002AC00DF910F910FBF1895C7D000E0C02E3FEE25
:1002BC0099279430D1F330930B010FEF0A95F1F796
:1002CC00009109010F700F3059F021E0882784301C
:1002DC0039F0102F122341F08395220F0C946D01ED
:1002EC00330F93950C945B01603021F09330C9F07F
:1002FC008330F9F127C1082F000F080F090F613067
:10030C0021F0653051F00C94D401B02E0E940C02F7
:10031C0010E0D11621F00C940603B02EA6C10E9459
:10032C00D202653011F00C94D401803051F0813040
:10033C0099F00E940C0200E0D02E0E9416020C9440
:10034C003B030E940C0203E0E01689F00395E02EBB
:10035C000E9416020C943B030E940C0200E0E01673
:10036C0031F00A95E02E0E9416020C943B030E9479
:10037C003B03913079F0613019F0653031F00EC0EB
:10038C00903031F401E0C02E92CF923039F4DAC0C3
:10039C000C945D0100E0B3CF0C94D4010C945B0180
:1003AC0001BB1FD0169A1DD016981BD0089501BB07
:1003BC00179A17D0169A15D0169813D01798089527
:1003CC000F93002700BB01BB159A0BD0169A09D0CE
:1003DC000FB1169807FDF9CF15980FEF00BB0F91D1
:1003EC0008958F939F939FE08CE90197F1F79F916C
:1003FC008F910895F6DFF5DFF4DFF3DFF2DF089578
:10040C00F9DFF8DFF7DFF6DFF5DF0895D2E0C4E0BF
:10041C000B2D003021F0D990E9900A95FACF189560
:10042C00D2E0C4E00B2D013021F0199119910A95FD
:10043C00FACFD992E992189560E071E002E3B7DF48
:10044C00BFDF01E3B4DFBCDF02E3B1DFB9DF01E3FF
:10045C00AEDFB6DF00E2ABDFB3DF01E3A8DFB0DF76
:10046C0007E3A5DFADDF03E7A2DFAADF01E39FDF30
:10047C00A7DF00E29CDFA4DF00E299DFA1DF00E24E
:10048C0096DF9EDF00E293DF9BDF0DE490DF98DFC9
:10049C0002E38DDF95DF08EA83DF92DF06E587DF75
:1004AC008FDF05E684DF8CDF0EE681DF89DF04E673
:1004BC007EDF86DF09E67BDF83DF0EE678DF80DF19
:1004CC0007E675DF7DDF00E272DF7ADF0DE46FDFB8
:1004DC0077DF01E66CDF74DF03E669DF71DF08E6C6
:1004EC0066DF6EDF09E663DF6BDF0EE660DF68DF79
:1004FC0005E65DDF65DF01D0189501E00A3039F0C3
:10050C00B02E0E940C02D02E8BDF0395F7CF01E0AA
:10051C000B3051F0B02E0E940C0211E0E12E0E9423
:10052C00160203950395F4CF02E00A3051F0B02E79
:10053C000E940C0212E0E12E0E9416020395039514
:10054C00F4CF189561E071E001E02ADF39DF00E8B3
:10055C0027DF36DF03E52BDF33DF05E628DF30DF6F
:10056C000CE625DF2DDF05E622DF2ADF03E61FDFA1
:10057C0027DF04E71CDF24DF00E219DF21DF09E6B7
:10058C0016DF1EDF04E713DF1BDF05E610DF18DFC5
:10059C000DE60DDF15DF8BCE62E071E001E000DFD0
:1005AC000FDF00E8FDDE0CDF0FE401DF09DF05E7FC
:1005BC00FEDE06DF04E7FBDE03DF00E2F8DE00DF31
:1005CC000FE6F5DEFDDE06E6F2DEFADE00E2EFDE39
:1005DC00F7DE03E7ECDEF4DE04E7E9DEF1DE0FE63E
:1005EC00E6DEEEDE03E6E3DEEBDE0BE6E0DEE8DE87
:1005FC0008EAD6DEE5DE08EAF02E0B2D9ED0FFDFF2
:10060C0063E001E0CDDEDCDE00E8CADED9DE09E421
:10061C00CEDED6DE0EE6CBDED3DE03E7C8DED0DEE2
:10062C0005E6C5DECDDE02E7C2DECADE04E7BFDECC
:10063C00C7DE00E2BCDEC4DE03E6B9DEC1DE0FE6D7
:10064C00B6DEBEDE09E6B3DEBBDE0EE6B0DEB8DE3D
:10065C0003E7ADDEB5DE08EAA3DEB2DE0E940C02D3
:10066C000E2D64E065E001E0B02E01E099DEA8DE1D
:10067C0000E896DEA5DE01E49ADEA2DE04E697DE53
:10068C009FDE0DE694DE9CDE09E691DE99DE0EE639
:10069C008EDE96DE00E28BDE93DE0DE688DE90DEEB
:1006AC000FE685DE8DDE04E682DE8ADE05E67FDE81
:1006BC0087DE00E27CDE84DE00E8F02E0B2D3DD0E0
:1006CC0008EA6EDE7DDE0E940C020D2D0E94A30353
:1006DC001FD000E26CDE74DE00E269DE71DE00E247
:1006EC0066DE6EDE00E263DE6BDE00E260DE68DE9C
:1006FC0000E25DDE65DE00E25ADE62DE00E257DE1D
:10070C005FDE04E254DE5CDE0E2D0E94A303CFCD2F
:10071C001127093050F029F008E010E314BB112721
:10072C0004C008E010E114BB1127003021F0110FB8
:10073C0011600A95FACF18B918950A3021F401E323
:10074C0036DE3EDE0A50005D002F31DE39DE0895C4
:00000001FF
