:020000020000FC
:100000000C9435000C94C1000C94D6000C94990308
:040010000C94340018
:10005C000C94F4000C9404040C94340018950FEFD9
:10006C000DBF01E20EBF00EF00930A0100270093C1
:10007C001802009319020FEF07B900E303BB02E06B
:10008C00009369000DB301600DBB08E0009369009B
:10009C000DB302600DBBC0E0D2E0002709930883CA
:1000AC00C2E0D2E000270993088300E004BD02E01F
:1000BC0005BD01E000936E0078940FEF00BB01B911
:1000CC00002701BB02B908E3C4D1D3D1ECD108E3BA
:1000DC00C0D1CFD1DFD108E3BCD1CBD108E3B9D1AA
:1000EC00C8D108E0B6D1C5D101E0B3D1C2D106E088
:1000FC00B0D1BFD10EE0ADD1BCD1C6E0D2E000276B
:10010C0009930883C8E0D2E0002709930883CAE06A
:10011C00D2E0002709930883CCE0D2E000270993B2
:10012C000883CEE0D2E0002709930883C0E1D2E037
:10013C00002709930883C2E1D2E0002709930883C2
:10014C00C4E1D2E0002709930883C6E1D2E000277E
:10015C000993088300E20093690004E00DBB992425
:10016C000FEF0DB900E00093800002E000938100D6
:10017C000C948102FFCF0F931F930FB70F93413055
:10018C0021F141E0653009F020C00E9465020AE0CF
:10019C00D016D9F00D2D0395D02E0E94710215C0EA
:1001AC000F931F930FB70F93513079F051E06530D7
:1001BC0009F00BC00E94650200E0D01631F00D2D45
:1001CC000A95D02E0E94710200C00F910FBF1F9193
:1001DC000F91653009F018950E945C040F931F93E2
:1001EC000FB70F939F938F93413019F0513009F053
:1001FC0017C0809104029091050201968C3003E0A7
:10020C00900751F444275527C4E0D2E00027099306
:10021C0008838827992704C08093040290930502D1
:10022C0080910002909101020196603029F06130BA
:10023C00B1F06230C1F15BC0713029F08C380BE544
:10024C00900741F4DFC170E0C0E0D2E000270993D1
:10025C0008834DC0809300029093010248C001E0D6
:10026C00C016F9F401E0801671F084380EE19007A5
:10027C0099F4A394C0E0D2E000270993088305E029
:10028C00A016A9F510C3C0E0D2E00027099308839B
:10029C00AA2400E0802E2BC08093000290930102D0
:1002AC0026C00C947D01713051F0863C0DE2900714
:1002BC0069F48C389BE5900791F40C94080370E07A
:1002CC00C0E0D2E000270993088311C00FEF08B9F2
:1002DC0000E304BB809300029093010208C0002746
:1002EC0008B904BB809300029093010200C08F9167
:1002FC009F910F910FBF1F910F9118953FEE99276A
:10030C000C948D0100E000931802C02EF7CF9430AE
:10031C00C9F330930B010FEF0A95F1F7CAD0009196
:10032C001802013021F401E00093190204C000E02E
:10033C00BAD000931902009109010F70003F11F01F
:10034C0021E08827843039F0102F122341F0839557
:10035C00220F0C94A801330F93950C948D0101E09E
:10036C000093180200911902013041F2603039F00B
:10037C009330F1F0833009F004C00C940A020C9411
:10038C000803082F000F080F090F0395613021F0A7
:10039C00653051F00C948401B02E0E94650210E07F
:1003AC00D11621F00C946403B02E80C20E9432034B
:1003BC00653011F00C948401803061F08130B1F023
:1003CC00833001F10E94650200E0D02E0E94710280
:1003DC000C945C040E94650203E0E01699F00E2D6B
:1003EC000395E02E0E9471020C945C040E9465023D
:1003FC0000E0E01639F00E2D0A95E02E0E947102F5
:10040C000C945C040E945C04913009F1613031F071
:10041C00623089F0653099F00C948401903011F0C1
:10042C000C94840100E0C01681F401E0802E01E000
:10043C00C02E0C948401923041F40C94A30392309E
:10044C0021F4002708B904BBDDC00C9484010C9482
:10045C00840101BB1FD0169A1DD016981BD008958D
:10046C0001BB179A17D0169A15D0169813D0179857
:10047C0008950F93002700BB01BB159A0BD0169A59
:10048C0009D00FB1169807FDF9CF15980FEF00BBE7
:10049C000F9108958F939F939FE08CE90197F1F74B
:1004AC009F918F910895F6DFF5DFF4DFF3DFF2DF34
:1004BC000895F9DFF8DFF7DFF6DFF5DF08950F9326
:1004CC00D2E0C6E00B2D003021F0D990E9900A95CE
:1004DC00FACF0F9108950F931F93D2E0C6E00B2D26
:1004EC00013021F0199119910A95FACFD992E9921C
:1004FC001F910F91089560E071E002E3B1DFB9DF65
:10050C0001E3AEDFB6DF02E3ABDFB3DF01E3A8DF6D
:10051C00B0DF00E2A5DFADDF01E3A2DFAADF07E376
:10052C009FDFA7DF03E79CDFA4DF01E399DFA1DFF7
:10053C0000E296DF9EDF00E293DF9BDF00E290DFBC
:10054C0098DF00E28DDF95DF0DE48ADF92DF02E3B6
:10055C0087DF8FDF08EA7DDF8CDF06E581DF89DF4F
:10056C0005E67EDF86DF0EE67BDF83DF04E678DFE1
:10057C0080DF09E675DF7DDF0EE672DF7ADF07E6E6
:10058C006FDF77DF00E26CDF74DF0DE469DF71DFB2
:10059C0001E666DF6EDF03E663DF6BDF08E660DF34
:1005AC0068DF09E65DDF65DF0EE65ADF62DF05E630
:1005BC0057DF5FDF02D00C94840101E00A3039F080
:1005CC00B02E0E946502D02E86DF0395F7CF01E096
:1005DC000B3051F0B02E0E94650211E0E12E0E940A
:1005EC00710203950395F4CF02E00A3051F0B02E5E
:1005FC000E94650212E0E12E0E94710203950395A0
:10060C00F4CF089561E001E024DF33DF00E821DF5F
:10061C0030DF03E525DF2DDF05E622DF2ADF0CE6E0
:10062C001FDF27DF05E61CDF24DF03E619DF21DFF0
:10063C0004E716DF1EDF00E213DF1BDF09E610DF25
:10064C0018DF04E70DDF15DF05E60ADF12DF0DE624
:10065C0007DF0FDF0C94840162E071E001E0F9DE4A
:10066C0008DF00E8F6DE05DF0FE4FADE02DF05E75F
:10067C00F7DEFFDE04E7F4DEFCDE00E2F1DEF9DE9D
:10068C000FE6EEDEF6DE06E6EBDEF3DE00E2E8DE9B
:10069C00F0DE03E7E5DEEDDE04E7E2DEEADE0FE6A0
:1006AC00DFDEE7DE03E6DCDEE4DE0BE6D9DEE1DEF0
:1006BC0008EACFDEDEDE0B2D61D1FFDF63E00E94A6
:1006CC0065029E2C01E0C5DED4DE00E8C2DED1DE80
:1006DC0009E4C6DECEDE0EE6C3DECBDE03E7C0DE0B
:1006EC00C8DE05E6BDDEC5DE02E7BADEC2DE04E723
:1006FC00B7DEBFDE00E2B4DEBCDE03E6B1DEB9DE9F
:10070C000FE6AEDEB6DE09E6ABDEB3DE0EE6A8DE45
:10071C00B0DE03E7A5DEADDE08EA9BDEAADE092D1E
:10072C002DD10C9484010F939A9400E0901611F043
:10073C000F91C8CF0F910C94AE030F939F9293948B
:10074C0040D09E1409F0FBCF9F900F910C9408039E
:10075C0064E001E07EDE8DDE00E87BDE8ADE04E410
:10076C007FDE87DE05E67CDE84DE0CE679DE81DE6C
:10077C0009E676DE7EDE06E773DE7BDE05E670DEFE
:10078C0078DE02E76DDE75DE09E66ADE72DE0EE605
:10079C0067DE6FDE07E664DE6CDE00E261DE69DEDA
:1007AC0009E45EDE66DE04E75BDE63DE05E658DE4A
:1007BC0060DE0DE655DE5DDE04C00027009300020E
:1007CC001DC00F9301E000936E000FEF0093990092
:1007DC0000E00093980071E0C2E0D2E0002709939A
:1007EC0008830F9108950F9300E000936E0000278B
:1007FC0000939900009398000F9108950F930FB7F1
:10080C000F939F938F938091020290910302019614
:10081C00643011F0633021F1713051F0863C0DE2FF
:10082C00900769F48C389BE5900791F4DCDF35C0B8
:10083C0070E0C2E0D2E00027099308832EC00FEFCE
:10084C0008B900E304BB809302029093030225C015
:10085C00002708B904BB80930202909303021DC0C9
:10086C00713051F0813A07E0900769F4BCDF8E33A8
:10087C009FE0900769F411C070E0C2E0D2E000275D
:10088C00099308830AC0809302029093030205C067
:10089C00809302029093030200C08F919F910F915D
:1008AC000FBF0F91189565E001E0B02E01E0D1DD8E
:1008BC00E0DD00E8CEDDDDDD01E4D2DDDADD04E6ED
:1008CC00CFDDD7DD0DE6CCDDD4DD09E6C9DDD1DD2C
:1008DC000EE6C6DDCEDD00E2C3DDCBDD0DE6C0DD10
:1008EC00C8DD0FE6BDDDC5DD04E6BADDC2DD05E61B
:1008FC00B7DDBFDD00E2B4DDBCDD0B2D3FD008EA77
:10090C00A8DDB7DD0E9465020D2D0E94C40420D025
:10091C0000E2A6DDAEDD00E2A3DDABDD00E2A0DD92
:10092C00A8DD00E29DDDA5DD00E29ADDA2DD00E29E
:10093C0097DD9FDD00E294DD9CDD00E291DD99DD29
:10094C0004E28EDD96DD0E2D0E94C4040C9484010D
:10095C0011270D2D093050F029F008E010E314BBDD
:10096C00112704C008E010E114BB1127003021F05E
:10097C00110F11600A95FACF18B908950A3021F4B5
:10098C0001E36EDD76DD0A50005D002F69DD71DD5F
:02099C000895BC
:00000001FF
