:020000020000FC
:100000000C9433000C94AC000C94C0000C9432009F
:10005C000C94DD000C94320018950FEF0DBF01E2EB
:10006C000EBF00EF00930A010027009316020093C5
:10007C0017020FEF07B900E303BB02E0009369001E
:10008C000DB301600DBB08E0009369000DB3026075
:10009C000DBBC0E0D2E000270993088300E004BD4B
:1000AC0002E005BD01E000936E0078940FEF00BBF9
:1000BC0001B9002701BB02B908E3A4D1B3D1CCD15B
:1000CC0008E3A0D1AFD1BFD108E39CD1ABD108E3F9
:1000DC0099D1A8D108E096D1A5D101E093D1A2D1B4
:1000EC0006E090D19FD10EE08DD19CD1C4E0D2E03E
:1000FC00002709930883C6E0D2E000270993088300
:10010C00C8E0D2E0002709930883CAE0D2E00027B8
:10011C0009930883CCE0D2E0002709930883CEE052
:10012C00D2E0002709930883C0E1D2E000270993AD
:10013C000883C2E1D2E0002709930883C4E1D2E02E
:10014C000027099308830C945A02FFCF0F931F9337
:10015C000FB70F93413011F141E0653009F01EC02B
:10016C000E943E020AE0D016C9F00395D02E0E94E0
:10017C004A0214C00F931F930FB70F93513071F0B5
:10018C0051E0653009F00AC00E943E0200E0D01632
:10019C0029F00A95D02E0E944A0200C00F910FBF81
:1001AC001F910F91653009F018950E9475030F93FC
:1001BC001F930FB70F939F938F93413019F05130CA
:1001CC0009F017C0809102029091030201968C30C5
:1001DC0003E0900751F444275527C2E0D2E00027F2
:1001EC00099308838827992704C08093020290936F
:1001FC00030280910002909101020196603029F077
:10020C006130B1F06230B1F159C0713029F08C38E5
:10021C000BE5900741F4CFC170E0C0E0D2E00027BD
:10022C00099308834BC0809300029093010246C04F
:10023C0001E0C016E9F4713071F084380EE19007DA
:10024C0091F4A394C0E0D2E000270993088305E061
:10025C00A016A1F541C2C0E0D2E0002709930883A3
:10026C00AA2470E02BC0809300029093010226C058
:10027C000C946401713051F0863C0DE2900769F4E6
:10028C008C389BE5900791F40C94E10270E0C0E08F
:10029C00D2E000270993088311C00FEF08B900E3DF
:1002AC0004BB809300029093010208C0002708B998
:1002BC0004BB809300029093010200C08F919F9128
:1002CC000F910FBF1F910F9118953FEE99270C942A
:1002DC00740100E000931602C02EF7CF9430C9F3DE
:1002EC0030930B010FEF0A95F1F7BCD00091160279
:1002FC00013021F401E00093170204C000E0ACD0FF
:10030C0000931702009109010F70003F11F021E0DA
:10031C008827843039F0102F122341F08395220F57
:10032C000C948F01330F93950C94740101E000939E
:10033C00160200911702013041F2603039F093300F
:10034C00F1F0833009F004C00C94ED010C94E1023F
:10035C00082F000F080F090F0395613021F065304D
:10036C0051F00C946B01B02E0E943E0210E0D1169D
:10037C0021F00C943D03B02EB2C10E940B036530EA
:10038C0011F00C946B01803051F0813099F00E9487
:10039C003E0200E0D02E0E944A020C9475030E948B
:1003AC003E0203E0E01689F00395E02E0E944A021B
:1003BC000C9475030E943E0200E0E01631F00A95A1
:1003CC00E02E0E944A020C9475030E947503913032
:1003DC00B9F0613021F0653071F00C946B01903004
:1003EC0011F00C946B0100E0C01641F471E001E0D7
:1003FC00C02E0C946B01923009F4DDC00C946B018F
:10040C000C946B0101BB1FD0169A1DD016981BD0F3
:10041C00089501BB179A17D0169A15D0169813D0B9
:10042C00179808950F93002700BB01BB159A0BD0AA
:10043C00169A09D00FB1169807FDF9CF15980FEF42
:10044C0000BB0F9108958F939F939FE08CE90197C8
:10045C00F1F79F918F910895F6DFF5DFF4DFF3DF6D
:10046C00F2DF0895F9DFF8DFF7DFF6DFF5DF089547
:10047C000F93D2E0C4E00B2D003021F0D990E9901D
:10048C000A95FACF0F9108950F931F93D2E0C4E011
:10049C000B2D013021F0199119910A95FACFD992AF
:1004AC00E9921F910F91089560E071E002E3B1DFD2
:1004BC00B9DF01E3AEDFB6DF02E3ABDFB3DF01E3AD
:1004CC00A8DFB0DF00E2A5DFADDF01E3A2DFAADF2A
:1004DC0007E39FDFA7DF03E79CDFA4DF01E399DFDE
:1004EC00A1DF00E296DF9EDF00E293DF9BDF00E2FC
:1004FC0090DF98DF00E28DDF95DF0DE48ADF92DF7D
:10050C0002E387DF8FDF08EA7DDF8CDF06E581DF22
:10051C0089DF05E67EDF86DF0EE67BDF83DF04E620
:10052C0078DF80DF09E675DF7DDF0EE672DF7ADFCC
:10053C0007E66FDF77DF00E26CDF74DF0DE469DF65
:10054C0071DF01E666DF6EDF03E663DF6BDF08E673
:10055C0060DF68DF09E65DDF65DF0EE65ADF62DF2C
:10056C0005E657DF5FDF02D00C946B0101E00A3027
:10057C0039F0B02E0E943E02D02E86DF0395F7CFC5
:10058C0001E00B3051F0B02E0E943E0211E0E12E42
:10059C000E944A0203950395F4CF02E00A3051F011
:1005AC00B02E0E943E0212E0E12E0E944A020395F8
:1005BC000395F4CF089561E001E024DF33DF00E818
:1005CC0021DF30DF03E525DF2DDF05E622DF2ADF23
:1005DC000CE61FDF27DF05E61CDF24DF03E619DF4F
:1005EC0021DF04E716DF1EDF00E213DF1BDF09E665
:1005FC0010DF18DF04E70DDF15DF05E60ADF12DF79
:10060C000DE607DF0FDF0C946B0162E071E001E097
:10061C00F9DE08DF00E8F6DE05DF0FE4FADE02DFC4
:10062C0005E7F7DEFFDE04E7F4DEFCDE00E2F1DED8
:10063C00F9DE0FE6EEDEF6DE06E6EBDEF3DE00E2DA
:10064C00E8DEF0DE03E7E5DEEDDE04E7E2DEEADE1F
:10065C000FE6DFDEE7DE03E6DCDEE4DE0BE6D9DE0A
:10066C00E1DE08EACFDEDEDE0B2DA0D0FFDF63E09B
:10067C0001E0C8DED7DE00E8C5DED4DE09E4C9DE61
:10068C00D1DE0EE6C6DECEDE03E7C3DECBDE05E64C
:10069C00C0DEC8DE02E7BDDEC5DE04E7BADEC2DEC0
:1006AC0000E2B7DEBFDE03E6B4DEBCDE0FE6B1DE91
:1006BC00B9DE09E6AEDEB6DE0EE6ABDEB3DE03E790
:1006CC00A8DEB0DE08EA9EDEADDE0E943E020E2DF4
:1006DC000E94DC03FFCF64E065E001E0B02E01E096
:1006EC0091DEA0DE00E88EDE9DDE01E492DE9ADE75
:1006FC0004E68FDE97DE0DE68CDE94DE09E689DEFD
:10070C0091DE0EE686DE8EDE00E283DE8BDE0DE60B
:10071C0080DE88DE0FE67DDE85DE04E67ADE82DEB4
:10072C0005E677DE7FDE00E274DE7CDE0B2D3ED04C
:10073C0008EA68DE77DE0E943E020D2D0E94DC0383
:10074C0020D000E266DE6EDE00E263DE6BDE00E2ED
:10075C0060DE68DE00E25DDE65DE00E25ADE62DE4F
:10076C0000E257DE5FDE00E254DE5CDE00E251DECA
:10077C0059DE04E24EDE56DE0E2D0E94DC030C9494
:10078C006B011127093050F029F008E010E314BB7D
:10079C00112704C008E010E114BB1127003021F030
:1007AC00110F11600A95FACF18B908950A3021F487
:1007BC0001E32FDE37DE0A50005D002F2ADE32DE29
:0207CC0008958E
:00000001FF
