:020000020000FC
:100000000C9402000FEF0DBF01E20EBF0FEF00BB1B
:1000100001B9002701BB02B950EF50930A0108E370
:10002000FED00DD126D108E3FAD009D119D108E3C9
:10003000F6D005D108E3F3D002D108E0F0D0FFD02C
:1000400001E0EDD0FCD006E0EAD0F9D00EE0E7D038
:10005000F6D000E3EBD0F3D02224002450E8452E64
:1000600058EA552E552750930002509301025093A1
:10007000020250930302509304025093050208EACF
:10008000CED0DDD04FEE22270C944B0050E05093A1
:1000900004020C9442002430C9F340930B015FEF3B
:1000A0005A95F1F7ECD050910402513029F451E007
:1000B000509305020C94600050E0DBD05093050291
:1000C000509109015F70503F11F031E01127143059
:1000D00039F0652F632341F01395330F0C946700BB
:1000E000440F23950C944B0051E05093040250911F
:1000F0000502513039F22330A1F01330E1F0512FD5
:10010000550F510F520F53956AE0069E050E505D34
:10011000052D85D094D0052F89D091D053940C947F
:100120004200113021F1103069F0123099F1133092
:1001300041F00C9442002030C1F02130B9F00C9411
:1001400042003CC0200C002450E8452E58EA552EB1
:1001500001E065D074D000E862D071D0522D95D006
:1001600008EA5DD06CD00C94420045C041C0201814
:10017000002450E8452E58EA552E01E050D05FD0BB
:1001800000E84DD05CD0522D80D008EA48D057D03E
:100190000C944200209C202C002450E8452E58EA64
:1001A000552E01E03CD04BD000E839D048D0522D3C
:1001B0006CD008EA34D043D00C944200CC24EE2416
:1001C000201418F0C3942018FBCF2C2C002450E8E6
:1001D000452E58EA552E01E022D031D000E81FD03C
:1001E0002ED0522D52D008EA1AD029D00C944200B9
:1001F00050E00C9484002224002450E8452E58EA54
:10020000552E01E00CD01BD000E809D018D000E337
:100210000DD015D008EA03D012D00C94420001BBD7
:100220001FD0169A1DD016981BD0089501BB179A9F
:1002300017D0169A15D0169813D0179808950F93C3
:10024000002700BB01BB159A0BD0169A09D00FB13D
:10025000169807FDF9CF15980FEF00BB0F91089581
:100260008F939F939FE08CE90197F1F79F918F9176
:100270000895F6DFF5DFF4DFF3DFF2DF0895F9DF4D
:10028000F8DFF7DFF6DFF5DF08956F936FEF543691
:1002900008F46627609301026627609300025436D3
:1002A00048F064E6561B609100026395609300027B
:1002B0000C944F0160910002603069F0509302028B
:1002C000562F505D042DABDFBADF4394052FAEDF10
:1002D000B6DF509102026627609300025A3048F060
:1002E0006AE0561B609100026395609300020C94D3
:1002F0006E0160910002603089F0609100025093BD
:100300000202562F505D042D8ADF99DF4394052F9A
:100310008DDF95DF509102020C94920160910102F1
:100320006F3F59F3505D042D7ADF89DF4394052F29
:080330007DDF85DF6F91089568
:00000001FF
